:020000040000FA
:06000000BBEF08F0120046
:020006001200E6
:08000800F2A402D0EDEF02F0BA
:100010009EA202D0B2EF03F01200D08EF28E120038
:1000200007001E120000330F000002000000131230
:100030000000160D00000B00000012120000360F29
:10004000000001000000FC110000000D000016007F
:100050000000E1110000000F00001B000000C911AA
:1000600000001B0F000018000000C21100002B0D43
:0600700000000700000083
:0A007600D9CFE6FFE1CFD9FF030E5A
:10008000E126FE0EDB50080802E2000E19D0FE0E3B
:10009000DBCF11FFDF6A0F011151DF5C0AE2DF5095
:1000A000EA6A090FE96E0F0EEA2220CDEFFFDF2A80
:1000B000F2D7010E176F0F0E186F126B010E00D0E2
:1000C000106E030EE15C02E2E16AE552E16E10504F
:1000D000E552E7CFD9FF12000F010051010A14E0E9
:1000E000010A01E03BD01251EA6A1725E96E185166
:1000F000EA22EF50E66E41D9E5520F01122B115161
:10010000125D01E3126B2AD01251EA6A1725E96EDB
:100110001851EA22EF50E66E30D9E5520F01122B4A
:100120001151125D01E3126B132B000E14231551B4
:10013000135D1651145911E3136B146B010E17194B
:1001400002E10F0E181905E1090E176F0F0E186F57
:1001500004D0010E176F0F0E186F00D01200D9CF08
:10016000E6FFE1CFD9FFE652DF6ADF6A0F011151E6
:10017000DF5C16E2DF50E76EFD0EDBCFE9FFFE0E1F
:10018000DBCFEAFFE750E926000EEA22EF50E66EE9
:100190004BD9E552000902E1000E41D0DF2AE6D733
:1001A000DF6A1151DF5C38E2DF50E76EFD0EDBCF16
:1001B000E9FFFE0EDBCFEAFFE750E926000EEA2258
:1001C000EF50200809E1DF50EA6A010FE96E0F0ED7
:1001D000EA2220CDEFFF1ED0DF50E76EFD0EDBCF11
:1001E000E9FFFE0EDBCFEAFFE750E926000EEA2228
:1001F000EF50D00FEA6A160FE96E0D0EEA22EF50AB
:10020000E66EDF50EA6A010FE96E0F0EEA22E55250
:10021000E750EF6EDF2AC5D7126B010E00D0E55212
:10022000E552E7CFD9FF1200D9CFE6FFE1CFD9FFE2
:10023000E652DF6ADF6A0F011151DF5C19E2DF501D
:10024000E76EFD0EDBCFE9FFFE0EDBCFEAFFE750E6
:10025000E926000EEA22EF50E66EDF50EA6A010F4F
:10026000E96E0F0EEA22E552E750EF6EDF2AE3D780
:10027000126BE552E552E7CFD9FF1200D9CFE6FF66
:10028000E1CFD9FFE652DF6AFE0EDBCF10F00F019F
:100290001151D880105402E2000E2DD0FD0EDBCF9C
:1002A000E6FFC2D8E552000902E1000E24D0FD0E9F
:1002B000DB5020080AE1FE0EDB50EA6A010FE96E0E
:1002C0000F0EEA2220CDEFFF14D0FD0EDB50D00F31
:1002D000EA6A160FE96E0D0EEA22EF50E66EFE0E88
:1002E000DB50EA6A010FE96E0F0EEA22E552E75091
:1002F000EF6E010E00D0E552E552E7CFD9FF1200B4
:10030000D9CFE6FFE1CFD9FFFD0EDBCF15FFFE0E03
:10031000DBCF16FF010E0F0B0F0105E0D89016334F
:100320001533E806FBE10F01136B146B010E006F30
:10033000E552E7CFD9FF12000F01010E176F0F0E24
:10034000186F006B1200D9CFE6FFE1CFD9FFE6525C
:10035000DF6A0F011151DF5C0AE2DF50EA6A010F28
:10036000E96E0F0EEA2220CDEFFFDF2AF2D7126BE3
:10037000E552E552E7CFD9FF1200D9CFE6FFE1CF32
:10038000D9FF826A040EE66ED6EC08F0E552FE0E46
:10039000DB50836E0F011251030A0DE0010A09E0E0
:1003A000030A05E0010A01E008D0828006D08282BB
:1003B00004D0828402D0828600D0E552E7CFD9FFF4
:1003C0001200D9CFE6FFE1CFD9FF020EE126FE0EE3
:1003D000DB50DF6EFE0EDBCFE6FFFD0EDB50E5529D
:1003E000E724DF5C17E2DF50EA6A010FE96E0F0EC7
:1003F000EA22010EEFCFDBFFDB508009E66EDF5013
:10040000EA6A010FE96E0F0EEA22E552E750EF6E3D
:10041000DF2AE0D7020EE15C02E2E16AE552E16E1A
:10042000E552E7CFD9FF1200D9CFE6FFE1CFD9FFE0
:10043000E652DF6AFE0EDB50200803E1010EDF6E9C
:100440000ED0300EF36EFE0EDBCFF4FFF350F45CF3
:1004500006E3FE0EDB50390802E3010EDF6EDF50CB
:1004600000D0E552E552E7CFD9FF1200D9CFE6FF21
:10047000E1CFD9FFE652DF6ADF6A0F011151DF5C7D
:1004800016E2DF50E76EFD0EDBCFE9FFFE0EDBCF9D
:10049000EAFFE750E926000EEA22EF50E66EC4DFDD
:1004A000E552000902E1000E4AD0DF2AE6D7FC0E31
:1004B000DB50DF6EFB0EDBCFE6FFFC0EDB50E552C0
:1004C000E724DF5C38E2DF50E76EFD0EDBCFE9FFAB
:1004D000FE0EDBCFEAFFE750E926000EEA22EF50DE
:1004E000200809E1DF50EA6A010FE96E0F0EEA22E7
:1004F00020CDEFFF1ED0DF50E76EFD0EDBCFE9FF12
:10050000FE0EDBCFEAFFE750E926000EEA22EF50AD
:10051000D00FEA6A160FE96E0D0EEA22EF50E66E72
:10052000DF50EA6A010FE96E0F0EEA22E552E7504A
:10053000EF6EDF2ABFD70F01126B010E00D0E5521C
:10054000E552E7CFD9FF1200D9CFE6FFE1CFD9FFBF
:10055000E652FD0EDBCF15FFFE0EDBCF16FF010EC0
:100560000F0B0F0105E0D89016331533E806FBE1B9
:100570000F01136B146BFC0EDB50196F1A6BDF6AE3
:100580001151DF5C1CE2DF50106E116A1951101816
:1005900002E11A51111811E0DF50EA6A010FE96E09
:1005A0000F0EEA22EF50E66EDF50EA6A090FE96E9D
:1005B0000F0EEA22E552E750EF6EDF2AE1D7090E6F
:1005C0001925E96E0F0E1A21EA6EEF6A010E006F0F
:0A05D000E552E552E7CFD9FF120013
:0605DA00DACFE4FFE2CFDE
:1005E000DAFFE9CFE4FFEACFE4FFF6CFE4FFF7CF8D
:1005F000E4FFF5CFE4FFF3CFE4FFF4CFE4FFFACF5D
:10060000E4FF00EE00F0100EE80403E3EECFE4FF99
:10061000FBD700EE10F0090EE80403E3EECFE4FF91
:10062000FBD7E652F2940D010C2B000E0D230E2386
:100630000F23102B1123122B1323142B15230251DC
:10064000031107E005D003CDFAFF0D010251F96E49
:10065000FADF00CDE6FF01CDE6FF5DEC08F0E552E4
:10066000E552E55200EE18F0090EE80403E3E5CF89
:10067000EDFFFBD700EE0FF0100EE80403E3E5CF2B
:10068000EDFFFBD7E5CFFAFFE5CFF4FFE5CFF3FFB2
:10069000E5CFF5FFE5CFF7FFE5CFF6FFE5CFEAFFC2
:1006A000E5CFE9FFE5CFDAFF1100DACFE4FFE2CFD3
:1006B000DAFFE9CFE4FFEACFE4FFF6CFE4FFF7CFBC
:1006C000E4FFF5CFE4FFF3CFE4FFF4CFE4FFFACF8C
:1006D000E4FF00EE00F0100EE80403E3EECFE4FFC9
:1006E000FBD700EE10F0090EE80403E3EECFE4FFC1
:1006F000FBD7E6529E9004CDE6FF05CDE6FF41EC28
:1007000008F0E552E5520D010651071107E005D04A
:1007100007CDFAFF0D010651F96EFADFE55200EE42
:1007200018F0090EE80403E3E5CFEDFFFBD700EE78
:100730000FF0100EE80403E3E5CFEDFFFBD7E5CFA4
:10074000FAFFE5CFF4FFE5CFF3FFE5CFF5FFE5CF07
:10075000F7FFE5CFF6FFE5CFEAFFE5CFE9FFE5CF0D
:10076000DAFF1100DACFE4FFE2CFDAFFE9CFE4FFEE
:10077000EACFE4FFF6CFE4FFF7CFE4FFF5CFE4FFE5
:10078000F3CFE4FFF4CFE4FFFACFE4FF00EE00F094
:10079000100EE80403E3EECFE4FFFBD700EE10F009
:1007A000090EE80403E3EECFE4FFFBD7E6529E9286
:1007B00008CDBBFF0D010A510B1107E005D00BCD91
:1007C000FAFF0D010A51F96EFADFE55200EE18F05A
:1007D000090EE80403E3E5CFEDFFFBD700EE0FF0D1
:1007E000100EE80403E3E5CFEDFFFBD7E5CFFAFFFA
:1007F000E5CFF4FFE5CFF3FFE5CFF5FFE5CFF7FF5A
:10080000E5CFF6FFE5CFEAFFE5CFE9FFE5CFDAFF79
:100810001100D9CFE6FFE1CFD9FF9F0EE66E79EC4C
:1008200008F0E552FD0EDBCF00FDFE0EDBCF01FD33
:10083000FB0EDBCF02FDFC0EDBCF03FDFD0EDBCF9D
:10084000E6FFFE0EDBCFE6FF5DEC08F0E552E55279
:10085000E552E7CFD9FF1200D9CFE6FFE1CFD9FFAC
:10086000020EE126830EDF6EDE520C0EDD6ECC6AC8
:10087000CC9E070ECD6EFD0EDBCFE6FFFE0EDBCF6E
:10088000E6FF41EC08F0E552E5529F809D80FD0EA9
:10089000DBCF04FDFE0EDBCF05FDFB0EDBCF06FD3F
:1008A000FC0EDBCF07FD020EE15C02E2E16AE552DD
:1008B000E16EE552E7CFD9FF1200D9CFE6FFE1CFD5
:1008C000D9FF0F0EBA6E9F829D82FE0EDB50BB6E6B
:1008D000FE0EDB500D01086F096BFC0EDBCF0AFD2D
:0E08E000FD0EDBCF0BFDE552E7CFD9FF120076
:0208EE00D9CF60
:1008F000E6FFE1CFD9FFE6528DD8DF6A080EDF5C54
:1009000009E2DF50EA6A1B0FE96E0F0EEA22EF6A76
:10091000DF2AF4D7E552E552E7CFD9FF1200D9CF4D
:10092000E6FFE1CFD9FF9BD8FC0EDBCFE6FFFD0E43
:10093000DBCFE6FFFE0EDBCFE6FFB9D8E552E5528E
:10094000E552E552E7CFD9FF1200D9CFE6FFE1CF5C
:10095000D9FFE652FC0EDB50DF6EFB0EDB50D88079
:10096000DF541AE37CD8DFCFE6FF136ADF34FE0BD7
:100970001336126EFD0EDB501224106EFE0EDB508D
:100980001320116E10C0E6FF11C0E6FF90D8E552AB
:10099000E552E552DF2AE1D7E552E552E7CFD9FF2C
:1009A0001200D9CFE6FFE1CFD9FFE652DF6A57D870
:1009B000DF6A080EDF5C15E2DFCFE6FF116ADF3485
:1009C000FE0B1136106E230E10260F0E112210C0D2
:1009D000E6FF11C0E6FF6BD8E552E552E552DF2A8B
:1009E000E8D7E552E552E7CFD9FF1200D9CFE6FFAD
:1009F000E1CFD9FFFE0EEA6ADB34FE0BEA36E96E80
:100A0000230EE9260F0EEA22EF5000D0E552E7CF81
:100A1000D9FF1200D9CFE6FFE1CFD9FFE652DF6A56
:100A2000080EDF5C17E2EA6ADF34FE0BEA36E96E95
:100A3000230EE9260F0EEA22EF6AEA6ADF34FE0B84
:100A4000EA36E96E230EE9260F0EEA22EE52EF6A2D
:100A5000DF2AE6D7E552E552E7CFD9FF12008150F1
:100A6000010B0F011B6F8150020B01E0010E1C6F87
:100A70008150040B01E0010E1D6F8150080B01E055
:100A8000010E1E6F8150100B01E0010E1F6F81508F
:100A9000200B01E0010E206F8150400B01E0010EA0
:100AA000216F8150800B01E0010E226F1200D9CF1F
:100AB000E6FFE1CFD9FFFD0EDBCFE9FFFE0EDBCF76
:100AC000EAFFEF50010A3DE0010A01E074D0FC0E9C
:100AD000DB50EA6A1B0FE96E0F0EEA22EF50010BA2
:100AE00027E1FD0EDBCFE9FFFE0EDBCFEAFFEE5282
:100AF000EF2AFD0EDBCFE9FFFE0EDBCFEAFFEECFE4
:100B000010F0EFCF11F0020E0001115C10E3FD0EAA
:100B1000DBCFE9FFFE0EDBCFEAFF010EEF6EFD0E2D
:100B2000DBCFE9FFFE0EDBCFEAFFEE52EF6A08D023
:100B3000FD0EDBCFE9FFFE0EDBCFEAFFEE52EF6AE0
:100B40003AD0FC0EDB50EA6A1B0FE96E0F0EEA2268
:100B5000EF50010B010826E1FD0EDBCFE9FFFE0E91
:100B6000DBCFEAFFEE52EF2AFD0EDBCFE9FFFE0EF0
:100B7000DBCFEAFFEECF10F0EFCF11F0020E000155
:100B8000115C0FE3FD0EDBCFE9FFFE0EDBCFEAFFCA
:100B9000EF6AFD0EDBCFE9FFFE0EDBCFEAFFEE5280
:100BA000EF6A08D0FD0EDBCFE9FFFE0EDBCFEAFFD8
:0E0BB000EE52EF6A00D0E552E7CFD9FF1200F7
:020BBE00D9CF8D
:100BC000E6FFE1CFD9FFE652BED82C0EE66E0D0E41
:100BD000E66EAFEC00F0E552E5520D01010E2B6F11
:100BE000E552E552E7CFD9FF12000D012B5118E075
:100BF000010A01E044D0E66AF6EC04F0E55201088F
:100C00000EE10D012B6B0D01146B156B9CD82C0E96
:100C1000E66E0D0EE66EAFEC00F0E552E5522FD019
:100C2000010EE66EF6EC04F0E552010804E10D0158
:100C3000010E2B6F24D014CD30FD15CD31FD0D01EB
:100C4000E80E305D030E315910E30D01146B156B86
:100C50000D012E2B2E51390808E2300E2E6F2F2B4E
:100C60002F51390802E2300E2F6F0AD82C0EE66E93
:100C70000D0EE66EAFEC00F0E552E55200D012002A
:100C8000D9CFE6FFE1CFD9FF040EE126DF6A030EDC
:100C9000DF5C32E230CD12F031CD13F00A0E0B6E74
:100CA0000C6A12C006F013C007F095EC08F002C001
:100CB00012F003C013F0300E1226000E1322D9508A
:100CC000010F106EDACF11F0DF500F011024E96E22
:100CD000000E1120EA6E12C0EFFF0A0E0B6E0C6AB6
:100CE00030CD06F031CD07F095EC08F006C030FDB0
:100CF00007C031FDDF2ACBD7DF6A020EDF5C19E2C5
:100D0000D950010F106EDACF11F0DF280F01102437
:100D1000E96E000E1120EA6EEF50E66EDF50EA6ACF
:100D20002C0FE96E0D0EEA22E552E750EF6EDF2A36
:100D3000E4D7040EE15C02E2E16AE552E16EE552BD
:100D4000E7CFD9FF1200D9CFE6FFE1CFD9FF020EDE
:100D5000E126DF6A040EDF5C0AE2DF50EA6A2C0F4C
:100D6000E96E0D0EEA22300EEF6EDF2AF3D7020E87
:100D7000E15C02E2E16AE552E16EE552E7CFD9FFBC
:020D800012005F
:0E0D8200D9CFE6FFE1CFD9FF080EE126DE6AE9
:100D9000240EDE6EF40EDE6EDD6ADD52DD52DECF35
:100DA00005F0DECF06F0DECF07F0DDCF08F0DD5234
:100DB000DD52055007E1240E061804E1F40E071871
:100DC00001E1085010E0055008E1900E061805E119
:100DD000D00E071802E1030E081801E000D0700ED3
:100DE000D36E9B8C04D0700ED36E9B9C00D0D9CF59
:100DF000E9FFDACFEAFFEECF10F0EECF11F0EECF41
:100E000012F0EFCF13F0020ED890133212321132DB
:100E10001032E806F9E1040E10C0DBFF050E11C028
:100E2000DBFF060E12C0DBFF070E13C0DBFFD9503D
:100E3000040FE96EDACFEAFFE80E096E030E0A6EC0
:100E40000B6A0C6AEECF04F0EECF05F0EECF06F0A1
:100E5000EFCF07F01DEC08F007C0EDFF06C0EDFF77
:100E600005C0EDFF04C0EFFF13681468156A040E97
:100E7000DBCF16F0050EDBCF17F0186A1650135CA7
:100E8000106E17501458116E18501558126E10C06D
:100E900033FF11C034FFC26A0F01386B396B3A6BF4
:100EA0003B6B3C6B9690F19E956A949094929494CF
:100EB000949693809382938493869388938C938C57
:100EC000938E080EE15C02E2E16AE552E16EE552C2
:060ED000E7CFD9FF12007C
:0A0ED600D9CFE6FFE1CFD9FF050EEA
:100EE000E126C1EC06F0040EE66E3BEC00F0E552A4
:100EF000000EE66EE66A33CFE6FF34CFE6FF09EC7C
:100F000004F0E552E552E552E552D80EE66E000EC9
:100F1000E66E1E0EE66E5DEC04F0E552E552E5521B
:100F2000DFEC05F00DEC00F0F40EDE6E010EDE6E6F
:100F3000DE6ADD6ADD52DD52D9CFE9FFDACFEAFFA2
:100F4000EE500D010C5DEE500D59EE500E59EE5065
:100F50000F5907E3CCEC08F00D010C6B0D6B0E6B19
:100F60000F6B0D01050E105D000E115907E3D1EC5A
:100F700004F00D01106B116B040EDB2AF5EC05F08B
:100F80000D01126B136BD8D7050EE15C02E2E16A2A
:0C0F9000E552E16EE552E7CFD9FF1200F8
:040F9C00200EF66EBF
:100FA000000EF76E000EF86E0D010900F550266F69
:100FB0000900F550276F03E1266701D03DD00900F5
:100FC000F550216F0900F550226F0900F550236F8D
:100FD00009000900F550E96E0900F550EA6E0900B4
:100FE00009000900F550246F0900F550256F09002C
:100FF0000900F6CF28FDF7CF29FDF8CF2AFD21CD36
:10100000F6FF22CDF7FF23CDF8FF0D01245302E1B7
:10101000255307E00900F550EE6E2407F8E2250796
:10102000F9D728CDF6FF29CDF7FF2ACDF8FF0D011E
:0A1030002607000E275BBFD7120051
:06103A00036A026A016A6C
:10104000006A200EE76ED89004360536063607365D
:1010500000360136023603360950005C0A5001584A
:101060000B5002580C50035809E30950005E0A5017
:10107000015A0B50025A0C50035A042AE72EE4D7A7
:0210800012005C
:0E108200D9CFE6FFDACFE6FFE1CFD9FFE2CF0C
:10109000DAFFE652E652FC0EDBCFDEFFDBCFDDFFF0
:1010A000010EDB50CF6EDF50CE6EE552E552E552B9
:0A10B000E5CFDAFFE7CFD9FF120009
:0610BA00D9CFE6FFDACFFA
:1010C000E6FFE1CFD9FFE2CFDAFFE652E652FC0EAF
:1010D000DBCFDEFFDBCFDDFF010EDB50D76EDF5055
:1010E000D66EE552E552E552E5CFDAFFE7CFD9FFFC
:0210F0001200EC
:0E10F200D9CFE6FFDACFE6FFE1CFD9FFE2CF9C
:10110000DAFFFD0EDB507F0BD56ED76AD66AF294FC
:10111000FD0EDBAE02D0F28A01D0F29AD58EE552F6
:0A112000E5CFDAFFE7CFD9FF120098
:06112A00036A026A100EC8
:10113000E76ED89006360736023603360B50025C4F
:101140000C50035805E30B50025E0C50035A062A5C
:06115000E72EF0D71200AB
:0A115600380EF36E00EE00F00F0EED
:1011600001D81200EA6002D0EE6AFCD7F350E960C1
:061170001200EE6AFCD73C
:0A11760010EE60F020EE60F0F86A61
:101180000F9CCEEC07F003EC00F06BEC07F0FBD704
:0211900012004B
:0E1192000F01366B12000F01360503E1366BBC
:0C11A000849003D0010E366F8480120092
:0411AC00FF0EE350FF
:1011B000E84E1200000000D000D000D0E82EFAD790
:0211C00012001B
:0711C2000000000000000026
:0711C900000000000000001F
:1011D000000000000000000000000000000000000F
:0111E000000E
:0F11E100000000000000000000000000000000FF
:0C11F000000000000000000000000000F3
:0411FC0000000000EF
:1012000000000000000000000000000000000000DE
:021210000000DC
:0112120000DB
:0B1213003F065B4F666D7D077F6F009C
:02121E000000CE
:020000040030CA
:0100010008F6
:0100020001FC
:0100030024D8
:01000500BD3D
:010006008079
:010008000FE8
:01000900C036
:01000A000FE6
:01000B00E014
:01000C000FE4
:01000D0040B2
:00000001FF
